:020000040800F2
:10000000002800203D1100084D1000085310000882
:10001000591000085F10000865100008000000007B
:100020000000000000000000000000006B1000084D
:100030007710000800000000831000088F100008EF
:100040008511000885110008851100088511000838
:100050008511000885110008851100088511000828
:100060008511000885110008851100088511000818
:100070008511000885110008851100088511000808
:1000800085110008851100088511000885110008F8
:1000900085110008851100088511000885110008E8
:1000A00085110008851100088511000885110008D8
:1000B0009D1000088511000800000000851100084F
:1000C00085110008000000000000000085110008F4
:1000D00000000000851100088511000800000000E4
:1000E0008511000885110008851100080000000036
:1000F0000000000000000000000000000000000000
:0C01000000000000000000005FF808F1A3
:10010C0010B5054C237833B9044B13B10448AFF345
:10011C0000800123237010BD580000200000000057
:10012C00CC27000808B5034B1BB103490348AFF3B8
:10013C00008008BD000000005C000020CC270008F7
:10014C0080B483B000AF7860044A7B68012142F828
:10015C00231000BF0C37BD4680BC704774000020D4
:10016C0080B483B000AF7860094A7B6852F82330C2
:10017C00002B06D0064A7B68002142F8231001238D
:10018C0000E0002318460C37BD4680BC704700BF0A
:10019C007400002080B582B000AF78600B467B8085
:1001AC00334A7B6852F8232032497B6841F823207C
:1001BC00314A7B6852F823202D497B6841F8232073
:1001CC007B8819462D4801F0C3FA034619462A4A82
:1001DC007B6842F82310274A7B6852F82320244975
:1001EC007B6851F823309A423DD1214A7B6852F802
:1001FC00232021497B6851F823309A4233D11E4A7F
:10020C007B6852F823201E497B6851F823309A42B0
:10021C0014D0194A7B6852F8232019497B6841F89D
:10022C002320154A7B6852F82330002B1BD17868A9
:10023C00FFF786FF134B32221A6014E0114B1B6838
:10024C00013B104A13600F4B1B68002B0BDC0A4A56
:10025C007B6852F82330002B02D17868FFF770FFCF
:10026C00084B32221A6000BF0837BD4680BD00BF64
:10027C000C0000200000002018000020000C0140A1
:10028C00240000203000002080B584B000AF03466D
:10029C00FB71FB793A4AD35CFB73FB7B03F00103E4
:1002AC00002B0CBF01230023DBB21A464FF4007164
:1002BC00344801F064FAFB7B5B08DBB203F001030A
:1002CC00002B0CBF01230023DBB21A464FF48061D4
:1002DC002C4801F054FAFB7B9B08DBB203F00103C2
:1002EC00002B0CBF01230023DBB21A464FF4006134
:1002FC00244801F044FAFB7BDB08DBB203F001037A
:10030C00002B0CBF01230023DBB21A464FF48051A3
:10031C001C4801F034FAFB7B1B09DBB203F0010330
:10032C00002B0CBF01230023DBB21A464FF4005103
:10033C00144801F024FAFB7B5B09DBB203F00103E8
:10034C00002B0CBF01230023DBB21A464FF4804173
:10035C000C4801F014FAFB7B9B09DBB203F00103A0
:10036C00002B0CBF01230023DBB21A464FF40041D3
:10037C00044801F004FA00BF1037BD4680BD00BF31
:10038C00400000200008014080B582B000AF034659
:10039C000A46FB711346BB71FB79002B40F084803D
:1003AC00BB79032B68D801A252F823F0C9030008CB
:1003BC00F30300082704000851040008012240211F
:1003CC00774801F0DCF900220821754801F0D7F9D3
:1003DC00744B1B78744AA2FB0323DB08DBB2184670
:1003EC00FFF752FFD8E0012208216D4801F0C7F950
:1003FC00002210216A4801F0C2F96A4B1A786A4B44
:10040C00A3FB0213D9080B469B000B445B00D31AC9
:10041C00DBB21846FFF738FFBEE00122102160481E
:10042C0001F0ADF9002220215D4801F0A8F95F4BE5
:10043C001B785D4AA2FB0323DB08DBB21846FFF7EF
:10044C0023FFA9E001222021554801F098F9002250
:10045C004021534801F093F9544B1A78524BA3FBAB
:10046C000213D9080B469B000B445B00D31ADBB27A
:10047C001846FFF709FF8FE000220821484801F0D9
:10048C007EF900221021464801F079F90022202142
:10049C00434801F074F900224021414801F06FF902
:1004AC000A20FFF7F1FE77E0BB79022B3CD0022B40
:1004BC005ADC002B02D0012B1BD055E0012220214D
:1004CC00374801F05CF901224021354801F057F919
:1004DC0000220821324801F052F9354B1B88324A70
:1004EC00A2FB0323DB089BB2DBB21846FFF7CCFE62
:1004FC0052E0012208212A4801F041F90022102182
:10050C00274801F03CF92A4B1A88274BA3FB02130E
:10051C00D9080B469B000B445B00D31A9BB2DBB291
:10052C001846FFF7B1FE37E0012210211C4801F0FC
:10053C0026F9002220211A4801F021F9002240213D
:10054C00174801F01CF91B4B1B88DBB20A3BDBB2D2
:10055C001846FFF799FE174B1B88DBB20A3BDBB240
:10056C001846FFF791FE17E0002208210C4801F015
:10057C0006F9002210210A4801F001F9002220217D
:10058C00074801F0FCF800224021054801F0F7F87B
:10059C000A20FFF779FE00BF00BF0837BD4680BDBB
:1005AC00000801403B000020CDCCCCCC3C0000200E
:1005BC00340000208000002080B582B000AF0346DC
:1005CC003A60FB800B46BB803B68DAB2FB8819466D
:1005DC00064801F0D4F83B68DAB2BB8819460348E8
:1005EC0001F0CDF800BF0837BD4680BD000C0140BE
:1005FC0080B500AFB14B1B88042B00F2D58101A252
:10060C0052F823F025060008850600084707000865
:10061C000B080008E5080008012240210820FFF71C
:10062C00CBFF012280211020FFF7C6FF01224FF4DF
:10063C0080712020FFF7C0FF012210210820FFF756
:10064C00BBFF012240212020FFF7B6FF9B4B01226C
:10065C001A800021642000F02BFD994B9B781A46E0
:10066C00642303FB02F30121184600F021FD022153
:10067C00182000F01DFD97E1924B5B68002B23D0F6
:10068C00914B1B780133DAB28F4B1A708F4B1B785E
:10069C000133DAB28D4B1A70894B5A788B4B1A7026
:1006AC00864B02221A8001224FF480710820FFF73A
:1006BC0083FF834B5B781A46642303FB02F301210F
:1006CC00184600F0F5FC20E000224FF48071082061
:1006DC00FFF772FF7B4B9B68002B16D07C4B1A7874
:1006EC007C4B1B78591CC8B27A49087019461046C5
:1006FC00FFF74AFE774B1B7803F00303DAB2754B16
:10070C001A700221182000F0D3FC0020FFF728FDFE
:10071C000346002B00F04181684B0C221A80012209
:10072C004FF480710820FFF747FF694B01221A70C4
:10073C000021322000F0BCFC2FE1624B5B68002BE7
:10074C0026D0614B1B780133DAB25F4B1A705F4BCA
:10075C001B780133DAB25D4B1A70594B9A785A4BAD
:10076C001A70574B1A78594B1A70544B03221A8033
:10077C00012280210820FFF71FFF514B9B781A465E
:10078C00642303FB02F30121184600F091FC1FE0E7
:10079C00002280210820FFF70FFF4A4B9B68002B9B
:1007AC0016D04B4B1A784B4B1B78591CC8B2494985
:1007BC00087019461046FFF7E7FD464B1B7803F00F
:1007CC000303DAB2434B1A700221182000F070FCBC
:1007DC000020FFF7C5FC0346002B00F0E080374BF0
:1007EC000C221A80012280210820FFF7E5FE384BED
:1007FC0001221A700021322000F05AFCCFE0314B5C
:10080C005B68002B22D0304B1B780133DAB22E4BB5
:10081C001A702E4B1B780133DAB22C4B1A70284B02
:10082C005A78294B1A70254B04221A800122402138
:10083C002020FFF7C1FE224B5B781A46642303FB92
:10084C0002F30121184600F033FC1FE00022402186
:10085C002020FFF7B1FE1B4B9B68002B16D01C4BC6
:10086C001A781C4B1B78591CC8B21A4908701946C7
:10087C001046FFF789FD174B1B7803F00303DAB220
:10088C00144B1A700221182000F012FC0020FFF704
:10089C0067FC0346002B00F08480084B0C221A8066
:1008AC00012240212020FFF787FE094B01221A70FC
:1008BC000021322000F0FCFB73E000BF8000002020
:1008CC0038000020900000203B0000203C0000205D
:1008DC008200002083000020444B5B68002B26D054
:1008EC00434B1B780133DAB2414B1A70414B1B78E6
:1008FC000133DAB23F4B1A703F4B1A783C4B1A70EB
:10090C003D4B9A783B4B1A703C4B01221A800122CA
:10091C0040211020FFF750FE374B9B781A4664237A
:10092C0003FB02F30121184600F0C2FB1FE000227A
:10093C0040211020FFF740FE2C4B9B68002B16D05B
:10094C002F4B1A782F4B1B78591CC8B22D490870A5
:10095C0019461046FFF718FD2A4B1B7803F00303CA
:10096C00DAB2284B1A700221182000F0A1FB0020EB
:10097C00FFF7F6FB0346002B15D0204B0C221A80F8
:10098C00012240211020FFF717FE1D4B01221A7087
:10099C000021322000F08CFB05E000BF04E000BF1A
:1009AC0002E000BF00E000BF104B1B68002B1BD007
:1009BC00134B1B78002B17D10D4B1B78002B05D03C
:1009CC000B4B1B78013BDAB2094B1A70094B1B78A5
:1009DC00002B05D0074B1B78013BDAB2054B1A7084
:1009EC000021642000F064FB00BF80BD900000205B
:1009FC003B0000203C00002038000020800000203C
:100A0C00820000208300002080B500AFAF4B1B8814
:100A1C0040F2E732934200F02B81B3F57A7F80F2FB
:100A2C006A810E2B00F09A800E2B00F364810C2B44
:100A3C0002D00D2B49D05EE1A54B9B68002B1CD03E
:100A4C00A44B1A78A44B1B78591CC8B2A249087045
:100A5C0019461046FFF798FC9F4B1A789F4BA3FB47
:100A6C00021359080B465B000B44D31ADAB29A4BAB
:100A7C001A700221182000F01BFB954B1B68002BF1
:100A8C0007D04821964800F092FE0021322000F059
:100A9C000FFB0020FFF764FB0346002B08D08B4BA9
:100AAC000D221A80012240210820FFF785FD22E14A
:100ABC000220FFF755FB0346002B00F00081894B09
:100ACC001B88DAB2884B1A70F9E0814B9B68002BBB
:100ADC001CD0804B1A78804B1B78591CC8B27E49AD
:100AEC00087019461046FFF74FFC7B4B1A787B4B6E
:100AFC00A3FB021359080B465B000B44D31ADAB262
:100B0C00754B1A700221182000F0D2FA704B1B683A
:100B1C00002B07D09021724800F049FE00213220B2
:100B2C0000F0C6FA0020FFF71BFB0346002B08D091
:100B3C00664B0E221A80012280211020FFF73CFD0B
:100B4C00D9E00220FFF70CFB0346002B00F0B98024
:100B5C00644B1B88DAB2644B5A70B2E05C4B9B68F6
:100B6C00002B1CD05B4B1A785B4B1B78591CC8B202
:100B7C005949087019461046FFF706FC564B1A786F
:100B8C00564BA3FB021359080B465B000B44D31ABC
:100B9C00DAB2514B1A700221182000F089FA4C4B32
:100BAC001B68002B08D04FF490714D4800F0FFFDEE
:100BBC000021322000F07CFA0020FFF7D1FA034626
:100BCC00002B49D0414B01221A8001224FF4807135
:100BDC002020FFF7F1FC3F4B00221A70424B1B7890
:100BEC001A46414B9B7819463F4B5B780B449A4213
:100BFC000FD03D4B05221A703B4B02225A703A4BD8
:100C0C0003229A70314B40F2E7321A80314B0122A9
:100C1C001A70364B1B780133DAB2344B1A70344BE2
:100C2C001B780133DAB2324B1A702F4B1A782F4BD8
:100C3C001A702D4B9A782E4B1A702B4B9B781A46A8
:100C4C00642303FB02F30121184600F031FA002162
:100C5C00642000F02DFA4EE00220FFF781FA0346E3
:100C6C00002B30D01F4B1B88DAB21F4B9A702AE036
:100C7C00174B9B68002B09D0164B1B780A21184682
:100C8C00FFF782FB0221182000F012FA104B1B68B0
:100C9C00002B2FD00D4B00221A800E4B00221A7005
:100CAC00114B9B781A46642303FB02F3012118466F
:100CBC0000F0FEF90021642000F0FAF91AE000BF00
:100CCC0019E000BF17E000BF15E000BF8000002056
:100CDC00900000208200002083000020ABAAAAAA6A
:100CEC00000C014034000020380000203B000020A4
:100CFC003C00002000BF0120FFF732FA0346002B16
:100D0C0010D0094B1B78012B0CD1084B1B880133DD
:100D1C009AB2064B1A80054B1B88642B02D1034BED
:100D2C0001221A8000BF80BD820000203400002008
:100D3C0080B500AF00F022FA00F020F800F0A6F821
:100D4C0000F058F80B4801F077F90021322000F040
:100D5C00AFF90121642000F0ABF90221182000F05A
:100D6C00A7F9054B00221A80FFF742FCFFF74CFE57
:100D7C00FAE700BF9C0000208000002080B590B0F6
:100D8C0000AF07F1180328220021184601F010FDCE
:100D9C003B1D00221A605A609A60DA601A610223C5
:100DAC00BB610123BB621023FB6200237B6307F151
:100DBC001803184600F014FD0346002B01D000F078
:100DCC00E4F80F237B600023BB600023FB6000234F
:100DDC003B6100237B613B1D0021184600F080FF26
:100DEC000346002B01D000F0D0F800BF4037BD46C1
:100DFC0080BD000080B586B000AF07F1080300226B
:100E0C001A605A609A60DA603B4600221A605A6097
:100E1C001D4B4FF080421A601B4B41F63F725A60DB
:100E2C00194B00229A60184B0922DA60164B0022EB
:100E3C001A61154B00229A61134801F0ADF8034674
:100E4C00002B01D000F0A1F84FF48053BB6007F1E8
:100E5C00080319460C4801F043FA0346002B01D055
:100E6C0000F093F800233B6000237B603B4619465F
:100E7C00054801F00FFC0346002B01D000F085F86B
:100E8C0000BF1837BD4680BD9C00002080B586B0E1
:100E9C0000AF07F1080300221A605A609A60DA600A
:100EAC00284B9B69274A43F004039361254B9B69AC
:100EBC0003F004037B607B68224B9B69214A43F05F
:100ECC00080393611F4B9B6903F008033B603B686D
:100EDC0000224FF678611C4800F051FC00224FF4C0
:100EEC00FC711A4800F04BFC4FF67863BB60012391
:100EFC00FB6000233B6102237B6107F10803194669
:100F0C00114800F0ABFA0723BB600023FB60012300
:100F1C003B6107F1080319460C4800F09FFA4FF4A7
:100F2C00FC73BB600123FB6000233B6102237B61EC
:100F3C0007F108031946054800F090FA00BF18376E
:100F4C00BD4680BD0010024000080140000C01406D
:100F5C0080B582B000AF7860002000F0C1F80120AD
:100F6C0000F0BEF8022000F0BBF801210020FFF7D2
:100F7C0011F902210120FFF70DF904210220FFF7DE
:100F8C0009F900BF0837BD4680BD80B400AF72B60A
:100F9C0000BFFEE780B485B000AF154B9B69144AC7
:100FAC0043F001039361124B9B6903F00103BB6097
:100FBC00BB680F4BDB690E4A43F08053D3610C4B7B
:100FCC00DB6903F080537B607B680A4B5B68FB60DA
:100FDC00FB6823F0E063FB60FB6843F08063FB601D
:100FEC00044AFB68536000BF1437BD4680BC704791
:100FFC00001002400000014080B584B000AF786062
:10100C007B681B68B3F1804F13D10C4BDB690B4A27
:10101C0043F00103D361094BDB6903F00103FB606F
:10102C00FB68002200211C2000F0E1F91C2000F0DC
:10103C00FAF900BF1037BD4680BD00BF001002405A
:10104C0080B400AFFEE780B400AFFEE780B400AF21
:10105C00FEE780B400AFFEE780B400AFFEE780B4DB
:10106C0000AF00BFBD4680BC704780B400AF00BF6E
:10107C00BD4680BC704780B400AF00BFBD4680BC8D
:10108C00704780B500AF00F0BFF800BF80BD000016
:10109C0080B500AF024801F01BF800BF80BD00BF57
:1010AC009C00002080B400AF00BFBD4680BC7047E0
:1010BC0080B483B000AF7860396007493B687A68C8
:1010CC0041F82320054A3B68002142F8231000BF59
:1010DC000C37BD4680BC7047840000209000002077
:1010EC0080B483B000AF78600F4A7B6852F823302D
:1010FC00002B13DD0C4A7B6852F823305A1E0A4928
:10110C007B6841F82320084A7B6852F82330002B77
:10111C0004DC064A7B68012142F8231000BF0C371F
:10112C00BD4680BC704700BF8400002090000020AA
:10113C00FFF7B8FF0B480C490C4A002302E0D458C7
:10114C00C4500433C4188C42F9D3094A094C002307
:10115C0001E013600432A242FBD301F005FBFFF760
:10116C00E7FD704700000020580000201028000800
:10117C0058000020E8000020FEE7000080B500AF1A
:10118C00084B1B68074A43F010031360032000F060
:10119C0023F90F2000F008F8FFF7FCFE0023184697
:1011AC0080BD00BF0020024080B582B000AF7860E7
:1011BC00124B1A68124B1B7819464FF47A73B3FB17
:1011CC00F1F3B2FBF3F3184600F03BF90346002BA6
:1011DC0001D001230EE07B680F2B0AD8002279681E
:1011EC004FF0FF3000F003F9064A7B6813600023D0
:1011FC0000E0012318460837BD4680BD4C00002096
:10120C00540000205000002080B400AF054B1B7828
:10121C001A46054B1B681344034A136000BFBD46B6
:10122C0080BC704754000020E400002080B400AF64
:10123C00024B1B681846BD4680BC7047E40000207A
:10124C0080B485B000AF78607B6803F00703FB6067
:10125C000C4BDB68BB60BA684FF6FF031340BB60F6
:10126C00FB681A02BB68134343F0BF6343F40033BB
:10127C00BB60044ABB68D36000BF1437BD4680BC5A
:10128C00704700BF00ED00E080B400AF044BDB689A
:10129C001B0A03F007031846BD4680BC704700BF0D
:1012AC0000ED00E080B483B000AF0346FB7197F90A
:1012BC000730002B0BDBFB7903F01F02064997F973
:1012CC0007305B09012000FA02F241F8232000BF2D
:1012DC000C37BD4680BC704700E100E080B483B0A1
:1012EC0000AF03463960FB7197F90730002B0ADB1E
:1012FC003B68DAB20C4997F907301201D2B20B44B1
:10130C0083F800230AE03B68DAB20849FB7903F062
:10131C000F03043B1201D2B20B441A7600BF0C37F8
:10132C00BD4680BC704700BF00E100E000ED00E06E
:10133C0080B489B000AFF860B9607A60FB6803F0E4
:10134C000703FB61FB69C3F10703042B28BF0423CC
:10135C00BB61FB690433062B02D9FB69033B00E03C
:10136C0000237B614FF0FF32BB6902FA03F3DA43CF
:10137C00BB681A407B699A404FF0FF317B6901FAD8
:10138C0003F3D9437B680B40134318462437BD46FF
:10139C0080BC704780B582B000AF78607B68013B41
:1013AC00B3F1807F01D301230FE00A4A7B68013B34
:1013BC0053600F214FF0FF30FFF790FF054B0022D9
:1013CC009A60044B07221A60002318460837BD4662
:1013DC0080BD00BF10E000E080B582B000AF786047
:1013EC007868FFF72DFF00BF0837BD4680BD80B57C
:1013FC0086B000AF0346B9607A60FB7300237B6153
:10140C00FFF742FF78617A68B9687869FFF790FF57
:10141C00024697F90F3011461846FFF75FFF00BFE1
:10142C001837BD4680BD80B582B000AF0346FB7156
:10143C0097F907301846FFF735FF00BF0837BD4650
:10144C0080BD80B582B000AF78607868FFF7A2FFEE
:10145C00034618460837BD4680BD000080B48BB0EB
:10146C0000AF7860396000237B6200233B6248E167
:10147C0001227B6A02FA03F3FB613B681B68FA6981
:10148C001340BB61BA69FB699A4240F037813B68F3
:10149C005B68A34A93425ED0A14A934275D8A14A95
:1014AC00934258D09F4A93426FD89F4A934252D04E
:1014BC009D4A934269D89D4A93424CD09B4A934291
:1014CC0063D89B4A934246D0994A93425DD8122BDB
:1014DC002AD8122B59D801A252F823F06315000810
:1014EC003D1500084F1500089115000897150008C8
:1014FC009715000897150008971500089715000810
:10150C0097150008971500089715000897150008FF
:10151C0097150008971500089715000897150008EF
:10152C004515000859150008824A934213D02CE047
:10153C003B68DB683B6229E03B68DB6804333B6259
:10154C0024E03B68DB6808333B621FE03B68DB68E8
:10155C000C333B621AE03B689B68002B02D10423DE
:10156C003B6213E03B689B68012B05D108233B626F
:10157C007B68FA691A6109E008233B627B68FA69A7
:10158C005A6103E000233B6200E000BFBB69FF2B04
:10159C0001D87B6801E07B6804337B61BB69FF2B5E
:1015AC0002D87B6A9B0002E07B6A083B9B003B6194
:1015BC007B691A680F213B6901FA03F3DB431A407C
:1015CC00396A3B6901FA03F31A437B691A603B6879
:1015DC005B6803F08053002B00F09080564B9B69A6
:1015EC00554A43F001039361534B9B6903F001038C
:1015FC00BB60BB68514A7B6A9B08023352F82330AC
:10160C00FB607B6A03F003039B000F2202FA03F3D7
:10161C00DB43FA681340FB607B68494A93420DD068
:10162C007B68484A934207D07B68474A934201D172
:10163C00022304E0032302E0012300E000237A6A82
:10164C0002F0030292009340FA681343FB603B499B
:10165C007B6A9B080233FA6841F823203B685B687D
:10166C0003F48013002B06D0384B9A683749BB69BA
:10167C0013438B6006E0354B9A68BB69DB433349F7
:10168C0013408B603B685B6803F40013002B06D09F
:10169C002E4BDA682D49BB691343CB6006E02B4B0C
:1016AC00DA68BB69DB4329491340CB603B685B6854
:1016BC0003F40033002B06D0244B5A682349BB6932
:1016CC0013434B6006E0214B5A68BB69DB431F494F
:1016DC0013404B603B685B6803F48033002B06D0EF
:1016EC001A4B1A681949BB6913430B6006E0174B78
:1016FC001A68BB69DB43154913400B607B6A0133E5
:10170C007B623B681A687B6A22FA03F3002B7FF436
:10171C00AFAE00BF00BF2C37BD4680BC704700BFCA
:10172C0000003210000031100000221000002110C7
:10173C0000001210000011100010024000000140C7
:10174C0000080140000C0140001001400004014061
:10175C0080B485B000AF78600B467B807B689A685C
:10176C007B881340002B02D00123FB7301E0002384
:10177C00FB73FB7B18461437BD4680BC704780B4A6
:10178C0083B000AF78600B467B8013467B707B7810
:10179C00002B03D07A887B681A6103E07B881A04DB
:1017AC007B681A6100BF0C37BD4680BC704780B4A3
:1017BC0085B000AF78600B467B807B68DB68FB6094
:1017CC007A88FB6813401A04FB68D9437B880B406A
:1017DC001A437B681A6100BF1437BD4680BC704742
:1017EC0080B586B000AF78607B68002B01D10123F7
:1017FC006CE27B681B6803F00103002B00F0878010
:10180C00924B5B6803F00C03042B0CD08F4B5B6882
:10181C0003F00C03082B12D18C4B5B6803F4803360
:10182C00B3F5803F0BD1894B1B6803F40033002BBD
:10183C006CD07B685B68002B68D1012346E27B6827
:10184C005B68B3F5803F06D1804B1B687F4A43F43D
:10185C00803313602EE07B685B68002B0CD17B4BD4
:10186C001B687A4A23F480331360784B1B68774AE1
:10187C0023F4802313601DE07B685B68B3F5A02F15
:10188C000CD1724B1B68714A43F4802313606F4B6D
:10189C001B686E4A43F4803313600BE06B4B1B6880
:1018AC006A4A23F480331360684B1B68674A23F43D
:1018BC00802313607B685B68002B13D0FFF7B6FCAA
:1018CC00386108E0FFF7B2FC02463B69D31A642B7F
:1018DC0001D90323FAE15D4B1B6803F40033002BA1
:1018EC00F0D014E0FFF7A2FC386108E0FFF79EFC93
:1018FC0002463B69D31A642B01D90323E6E1534B0F
:10190C001B6803F40033002BF0D100E000BF7B68B0
:10191C001B6803F00203002B63D04C4B5B6803F095
:10192C000C03002B0BD0494B5B6803F00C03082B0A
:10193C001CD1464B5B6803F48033002B16D1434B10
:10194C001B6803F00203002B05D07B681B69012B7D
:10195C0001D00123BAE13D4B1B6823F0F8027B68F0
:10196C005B69DB00394913430B603AE07B681B6908
:10197C00002B20D0364B01221A60FFF757FC386140
:10198C0008E0FFF753FC02463B69D31A022B01D93E
:10199C0003239BE12D4B1B6803F00203002BF0D0BB
:1019AC002A4B1B6823F0F8027B685B69DB00274934
:1019BC0013430B6015E0264B00221A60FFF736FC30
:1019CC00386108E0FFF732FC02463B69D31A022B60
:1019DC0001D903237AE11D4B1B6803F00203002B92
:1019EC00F0D17B681B6803F00803002B3AD07B68AE
:1019FC009B69002B19D0174B01221A60FFF716FCBC
:101A0C00386108E0FFF712FC02463B69D31A022B3F
:101A1C0001D903235AE10D4B5B6A03F00203002B3F
:101A2C00F0D0012000F09AFA1CE00A4B00221A6058
:101A3C00FFF7FCFB38610FE0FFF7F8FB02463B6950
:101A4C00D31A022B08D9032340E100BF0010024037
:101A5C0000004242800442429E4B5B6A03F0020348
:101A6C00002BE9D17B681B6803F00403002B00F00A
:101A7C00A6800023FB75974BDB6903F08053002B8A
:101A8C000DD1944BDB69934A43F08053D361914B56
:101A9C00DB6903F08053BB60BB680123FB758E4B85
:101AAC001B6803F48073002B18D18B4B1B688A4A7C
:101ABC0043F480731360FFF7B9FB386108E0FFF75C
:101ACC00B5FB02463B69D31A642B01D90323FDE015
:101ADC00814B1B6803F48073002BF0D07B68DB68B0
:101AEC00012B06D17B4B1B6A7A4A43F0010313622C
:101AFC002DE07B68DB68002B0CD1764B1B6A754A9A
:101B0C0023F001031362734B1B6A724A23F0040324
:101B1C0013621CE07B68DB68052B0CD16D4B1B6AD8
:101B2C006C4A43F0040313626A4B1B6A694A43F024
:101B3C00010313620BE0674B1B6A664A23F0010337
:101B4C001362644B1B6A634A23F0040313627B68C1
:101B5C00DB68002B15D0FFF769FB38610AE0FFF753
:101B6C0065FB02463B69D31A41F28832934201D994
:101B7C000323ABE0574B1B6A03F00203002BEED0A0
:101B8C0014E0FFF753FB38610AE0FFF74FFB024606
:101B9C003B69D31A41F28832934201D9032395E071
:101BAC004C4B1B6A03F00203002BEED1FB7D012B87
:101BBC0005D1484BDB69474A23F08053D3617B68DE
:101BCC00DB69002B00F08180424B5B6803F00C0357
:101BDC00082B61D07B68DB69022B46D13F4B00227E
:101BEC001A60FFF723FB386108E0FFF71FFB024682
:101BFC003B69D31A022B01D9032367E0354B1B68D1
:101C0C0003F00073002BF0D17B681B6AB3F5803FA7
:101C1C0008D1304B5B6823F400327B689B682D49FC
:101C2C0013434B602B4B5B6823F474127B68196A6B
:101C3C007B685B6A0B43274913434B60274B01229C
:101C4C001A60FFF7F3FA386108E0FFF7EFFA024683
:101C5C003B69D31A022B01D9032337E01D4B1B68B8
:101C6C0003F00073002BF0D02FE01C4B00221A6005
:101C7C00FFF7DCFA386108E0FFF7D8FA02463B6957
:101C8C00D31A022B01D9032320E0124B1B6803F05B
:101C9C000073002BF0D118E07B68DB69012B01D1BC
:101CAC00012313E00B4B5B68FB60FB6803F4803291
:101CBC007B681B6A9A4206D1FB6803F470127B683E
:101CCC005B6A9A4201D0012300E0002318461837C2
:101CDC00BD4680BD001002400070004060004242D2
:101CEC0080B584B000AF786039607B68002B01D17F
:101CFC000123D0E06A4B1B6803F007033A689A4251
:101D0C0010D9674B1B6823F0070265493B681343E6
:101D1C000B60634B1B6803F007033A689A4201D0CF
:101D2C000123B8E07B681B6803F00203002B20D072
:101D3C007B681B6803F00403002B05D0594B5B68D0
:101D4C00584A43F4E06353607B681B6803F0080354
:101D5C00002B05D0534B5B68524A43F460535360DD
:101D6C00504B5B6823F0F0027B689B684D49134332
:101D7C004B607B681B6803F00103002B40D07B6831
:101D8C005B68012B07D1474B1B6803F40033002B16
:101D9C0015D101237FE07B685B68022B07D1414B97
:101DAC001B6803F00073002B09D1012373E03D4B3A
:101DBC001B6803F00203002B01D101236BE0394BAC
:101DCC005B6823F003027B685B68364913434B6006
:101DDC00FFF72CFAF8600AE0FFF728FA0246FB68D6
:101DEC00D31A41F28832934201D9032353E02D4B8D
:101DFC005B6803F00C027B685B689B009A42EBD13A
:101E0C00274B1B6803F007033A689A4210D2244B05
:101E1C001B6823F0070222493B6813430B60204BDD
:101E2C001B6803F007033A689A4201D0012332E0A1
:101E3C007B681B6803F00403002B08D0194B5B680C
:101E4C0023F4E0627B68DB68164913434B607B68C4
:101E5C001B6803F00803002B09D0124B5B6823F4BA
:101E6C0060527B681B69DB000E4913434B6000F02A
:101E7C0021F802460B4B5B681B0903F00F030A4960
:101E8C00CB5C22FA03F3094A1360094B1B68184612
:101E9C00FFF78AF9002318461037BD4680BD00BFF6
:101EAC000020024000100240E42700084C000020F3
:101EBC005000002080B487B000AF0023FB600023EB
:101ECC00BB6000237B6100237B6000233B611E4BC6
:101EDC005B68FB60FB6803F00C03042B02D0082B3F
:101EEC0003D027E0194B3B6127E0FB689B0C03F008
:101EFC000F03174AD35C7B60FB6803F48033002B21
:101F0C0010D0114B5B685B0C03F00103114AD35CDE
:101F1C00BB607B680D4A02FB03F2BB68B2FBF3F3B8
:101F2C007B6104E07B680C4A02FB03F37B617B69F9
:101F3C003B6102E0054B3B6100BF3B6918461C3717
:101F4C00BD4680BC704700BF0010024000127A00F2
:101F5C00F42700080428000800093D0080B485B06F
:101F6C0000AF78600A4B1B680A4AA2FB03235B0A8A
:101F7C007A6802FB03F3FB6000BFFB685A1EFA6031
:101F8C00002BF9D100BF00BF1437BD4680BC704791
:101F9C004C000020D34D621080B582B000AF786049
:101FAC007B68002B01D1012341E07B6893F83D3025
:101FBC00DBB2002B06D17B68002283F83C207868CA
:101FCC00FFF71AF87B68022283F83D207B681A68B9
:101FDC007B6804331946104600F06EFA7B680122C8
:101FEC0083F846207B68012283F83E207B6801221F
:101FFC0083F83F207B68012283F840207B68012214
:10200C0083F841207B68012283F842207B680122FF
:10201C0083F843207B68012283F844207B680122EB
:10202C0083F845207B68012283F83D200023184665
:10203C000837BD4680BD000080B485B000AF786025
:10204C007B6893F83D30DBB2012B01D0012335E0E6
:10205C007B68022283F83D207B681B68DA687B680A
:10206C001B6842F00102DA607B681B68164A9342D7
:10207C0009D07B681B68B3F1804F04D07B681B6868
:10208C00124A934211D17B681B689B6803F00703CB
:10209C00FB60FB68062B10D07B681B681A687B689A
:1020AC001B6842F001021A6007E07B681B681A6823
:1020BC007B681B6842F001021A6000231846143733
:1020CC00BD4680BC704700BF002C0140000400409E
:1020DC0080B582B000AF78607B681B681B6903F029
:1020EC000203022B22D17B681B68DB6803F002031E
:1020FC00022B1BD17B681B686FF002021A617B6894
:10210C0001221A777B681B689B6903F00303002B81
:10211C0003D0786800F0B4F905E0786800F0A7F90E
:10212C00786800F0B6F97B6800221A777B681B6828
:10213C001B6903F00403042B22D17B681B68DB684A
:10214C0003F00403042B1BD17B681B686FF00402A3
:10215C001A617B6802221A777B681B689B6903F4FF
:10216C004073002B03D0786800F08AF905E078689A
:10217C0000F07DF9786800F08CF97B6800221A7702
:10218C007B681B681B6903F00803082B22D17B6852
:10219C001B68DB6803F00803082B1BD17B681B68EA
:1021AC006FF008021A617B6804221A777B681B683F
:1021BC00DB6903F00303002B03D0786800F060F9AF
:1021CC0005E0786800F053F9786800F062F97B68F4
:1021DC0000221A777B681B681B6903F01003102B15
:1021EC0022D17B681B68DB6803F01003102B1BD11A
:1021FC007B681B686FF010021A617B6808221A77E3
:10220C007B681B68DB6903F44073002B03D0786890
:10221C0000F036F905E0786800F029F9786800F0EC
:10222C0038F97B6800221A777B681B681B6903F0FE
:10223C000103012B0ED17B681B68DB6803F00103E3
:10224C00012B07D17B681B686FF001021A6178685B
:10225C00FEF77EFE7B681B681B6903F08003802BF6
:10226C000ED17B681B68DB6803F08003802B07D1E1
:10227C007B681B686FF080021A61786800F06BFA5B
:10228C007B681B681B6903F04003402B0ED17B68F5
:10229C001B68DB6803F04003402B07D17B681B688D
:1022AC006FF040021A61786800F0FCF87B681B68DC
:1022BC001B6903F02003202B0ED17B681B68DB68A5
:1022CC0003F02003202B07D17B681B686FF02002E2
:1022DC001A61786800F036FA00BF0837BD4680BD39
:1022EC0080B584B000AF786039600023FB737B68E5
:1022FC0093F83C30012B01D10223B4E07B6801221E
:10230C0083F83C207B68022283F83D207B681B68A5
:10231C009B68BB60BB6823F07703BB60BB6823F48E
:10232C007F43BB607B681B68BA689A603B681B681C
:10233C00B3F5005F3ED0B3F5005F00F28780B3F5D4
:10234C00805F00F08680B3F5805F7FD8702B1AD049
:10235C00702B7BD8602B50D0602B77D8502B3CD077
:10236C00502B73D8402B58D0402B6FD8302B64D0C7
:10237C00302B6BD8202B60D0202B67D8002B5CD057
:10238C00102B5AD062E07B6818683B6899683B68F0
:10239C005A683B68DB6800F05EF97B681B689B68D9
:1023AC00BB60BB6843F07703BB607B681B68BA6893
:1023BC009A604FE07B6818683B6899683B685A687C
:1023CC003B68DB6800F047F97B681B689A687B68A0
:1023DC001B6842F480429A603CE07B6818683B685A
:1023EC0059683B68DB681A4600F0BEF87B681B68CE
:1023FC005021184600F015F92CE07B6818683B68F2
:10240C0059683B68DB681A4600F0DCF87B681B688F
:10241C006021184600F005F91CE07B6818683B68E1
:10242C0059683B68DB681A4600F09EF87B681B68AD
:10243C004021184600F0F5F80CE07B681A683B6800
:10244C001B681946104600F0ECF803E00123FB73FF
:10245C0000E000BF7B68012283F83D207B680022EE
:10246C0083F83C20FB7B18461037BD4680BD80B4FA
:10247C0083B000AF786000BF0C37BD4680BC70479E
:10248C0080B483B000AF786000BF0C37BD4680BC11
:10249C00704780B483B000AF786000BF0C37BD4686
:1024AC0080BC704780B483B000AF786000BF0C373D
:1024BC00BD4680BC7047000080B485B000AF78602A
:1024CC0039607B681B68FB607B68254A934207D0A8
:1024DC007B68B3F1804F03D07B68224A934208D1CA
:1024EC00FB6823F07003FB603B685B68FA6813437E
:1024FC00FB607B681A4A934207D07B68B3F1804F2C
:10250C0003D07B68174A934208D1FB6823F44073CD
:10251C00FB603B68DB68FA681343FB60FB6823F0E5
:10252C0080023B685B691343FB607B68FA681A6046
:10253C003B689A687B68DA623B681A687B689A62C7
:10254C007B68074A934203D13B681A697B681A631C
:10255C007B6801225A6100BF1437BD4680BC7047AE
:10256C00002C01400004004080B487B000AFF8603C
:10257C00B9607A60FB681B6A7B61FB681B6A23F09D
:10258C000102FB681A62FB689B693B613B6923F0A3
:10259C00F0033B617B681B013A6913433B617B6928
:1025AC0023F00A037B617A69BB6813437B61FB6888
:1025BC003A699A61FB687A691A6200BF1C37BD469A
:1025CC0080BC704780B487B000AFF860B9607A60A7
:1025DC00FB681B6A7B61FB681B6A23F01002FB68BB
:1025EC001A62FB689B693B613B6923F470433B6156
:1025FC007B681B033A6913433B617B6923F0A0039F
:10260C007B61BB681B017A6913437B61FB683A6988
:10261C009A61FB687A691A6200BF1C37BD4680BCA0
:10262C00704780B485B000AF786039607B689B6878
:10263C00FB60FB6823F07003FB603A68FB68134394
:10264C0043F00703FB607B68FA689A6000BF14379D
:10265C00BD4680BC704780B487B000AFF860B960ED
:10266C007A603B60FB689B687B617B6923F47F43EA
:10267C007B613B681A027B681A43BB6813437A6917
:10268C0013437B61FB687A699A6000BF1C37BD46B7
:10269C0080BC704780B485B000AF786039607B68CF
:1026AC0093F83C30012B01D1022341E07B680122DD
:1026BC0083F83C207B68022283F83D207B681B68F2
:1026CC005B68FB607B681B689B68BB60FB6823F0E6
:1026DC007003FB603B681B68FA681343FB607B6804
:1026EC001B68FA685A607B681B68144A934209D0CD
:1026FC007B681B68B3F1804F04D07B681B68104A61
:10270C0093420CD1BB6823F08003BB603B685B68D1
:10271C00BA681343BB607B681B68BA689A607B68B5
:10272C00012283F83D207B68002283F83C200023A3
:10273C0018461437BD4680BC704700BF002C0140C2
:10274C000004004080B483B000AF786000BF0C3749
:10275C00BD4680BC704780B483B000AF786000BFCA
:10276C000C37BD4680BC704770B500260C4D0D4C27
:10277C00641BA410A64209D100F022F800260A4DD1
:10278C000A4C641BA410A64205D170BD55F8043B3D
:10279C0098470136EEE755F8043B98470136F2E7C7
:1027AC000828000808280008082800080C28000839
:1027BC0003460244934200D1704703F8011BF9E72A
:1027CC00F8B500BFF8BC08BC9E467047F8B500BF12
:0827DC00F8BC08BC9E467047E2
:1027E40000000000000000000102030406070809BD
:1027F40002030405060708090A0B0C0D0E0F10103E
:0428040001020000CD
:042808003101000892
:04280C000D010008B2
:1028100001000000010000000100000001000000B4
:1028200001000000010000000100000001000000A4
:102830000100000001000000010000000100000094
:10284000C8000000010000000502030503000000AD
:102850003F065B4F666D7D077F6F79000024F400B3
:0828600010000000010000005F
:040000050800113DA1
:00000001FF
