:020000040800F2
:1000000000280020BD0F0008CD0E0008D30E000808
:10001000D90E0008DF0E0008E50E00080000000001
:10002000000000000000000000000000EB0E0008CF
:10003000F70E000800000000030F00080F0F000873
:10004000051000080510000805100008051000083C
:10005000051000080510000805100008051000082C
:10006000051000080510000805100008051000081C
:10007000051000080510000805100008051000080C
:1000800005100008051000080510000805100008FC
:1000900005100008051000080510000805100008EC
:1000A00005100008051000080510000805100008DC
:1000B0001D0F0008051000080000000005100008D2
:1000C00005100008000000000000000005100008F6
:1000D00000000000051000080510000800000000E6
:1000E00005100008051000080510000800000000B9
:1000F0000000000000000000000000000000000000
:0C01000000000000000000005FF808F1A3
:10010C0010B5054C237833B9044B13B10448AFF345
:10011C0000800123237010BD580000200000000057
:10012C004C26000808B5034B1BB103490348AFF339
:10013C00008008BD000000005C0000204C26000878
:10014C0080B483B000AF7860044A7B68012142F828
:10015C00231000BF0C37BD4680BC704774000020D4
:10016C0080B483B000AF7860094A7B6852F82330C2
:10017C00002B06D0064A7B68002142F8231001238D
:10018C0000E0002318460C37BD4680BC704700BF0A
:10019C007400002080B582B000AF78600B467B8085
:1001AC00334A7B6852F8232032497B6841F823207C
:1001BC00314A7B6852F823202D497B6841F8232073
:1001CC007B8819462D4801F003FA034619462A4A42
:1001DC007B6842F82310274A7B6852F82320244975
:1001EC007B6851F823309A423DD1214A7B6852F802
:1001FC00232021497B6851F823309A4233D11E4A7F
:10020C007B6852F823201E497B6851F823309A42B0
:10021C0014D0194A7B6852F8232019497B6841F89D
:10022C002320154A7B6852F82330002B1BD17868A9
:10023C00FFF786FF134B32221A6014E0114B1B6838
:10024C00013B104A13600F4B1B68002B0BDC0A4A56
:10025C007B6852F82330002B02D17868FFF770FFCF
:10026C00084B32221A6000BF0837BD4680BD00BF64
:10027C000C0000200000002018000020000C0140A1
:10028C00240000203000002080B586B000AFF8605C
:10029C00B9607A60AA4AFB6813441B78FB75BB688B
:1002AC00A84A934240F0DA807B68002B67D0FB7D34
:1002BC0003F00103002B0CBF01230023DBB21A4611
:1002CC000121B86801F09BF9FB7D5B08DBB203F000
:1002DC000103002B0CBF01230023DBB21A460221C1
:1002EC00B86801F08CF9FB7D9B08DBB203F00103CD
:1002FC00002B0CBF01230023DBB21A460421B86883
:10030C0001F07DF9FB7DDB08DBB203F00103002B70
:10031C000CBF01230023DBB21A460821B86801F098
:10032C006EF9FB7D1B09DBB203F00103002B0CBF44
:10033C0001230023DBB21A461021B86801F05FF9E3
:10034C00FB7D5B09DBB203F00103002B0CBF012327
:10035C000023DBB21A462021B86801F050F9FB7D6E
:10036C009B09DBB203F00103002B0CBF012300231C
:10037C00DBB21A464021B86801F041F9DCE0FB7DA4
:10038C0003F00103002B0CBF01230023DBB21A4640
:10039C004FF40071B86801F032F9FB7D5B08DBB2F9
:1003AC0003F00103002B0CBF01230023DBB21A4620
:1003BC004FF48061B86801F022F9FB7D9B08DBB239
:1003CC0003F00103002B0CBF01230023DBB21A4600
:1003DC004FF40061B86801F012F9FB7DDB08DBB269
:1003EC0003F00103002B0CBF01230023DBB21A46E0
:1003FC004FF48051B86801F002F9FB7D1B09DBB2A8
:10040C0003F00103002B0CBF01230023DBB21A46BF
:10041C004FF40051B86801F0F2F8FB7D5B09DBB2D8
:10042C0003F00103002B0CBF01230023DBB21A469F
:10043C004FF48041B86801F0E2F8FB7D9B09DBB218
:10044C0003F00103002B0CBF01230023DBB21A467F
:10045C004FF40041B86801F0D2F86DE0FB7D03F079
:10046C000103002B0CBF01230023DBB21A464FF40F
:10047C000071B86801F0C3F8FB7D5B08DBB203F0D8
:10048C000103002B0CBF01230023DBB21A464FF4EF
:10049C008061B86801F0B3F8FB7D9B08DBB203F018
:1004AC000103002B0CBF01230023DBB21A464FF4CF
:1004BC000061B86801F0A3F8FB7DDB08DBB203F048
:1004CC000103002B0CBF01230023DBB21A464FF4AF
:1004DC008051B86801F093F8FB7D1B09DBB203F087
:1004EC000103002B0CBF01230023DBB21A464FF48F
:1004FC000051B86801F083F8FB7D5B09DBB203F0B7
:10050C000103002B0CBF01230023DBB21A464FF46E
:10051C008041B86801F073F8FB7D9B09DBB203F0F6
:10052C000103002B0CBF01230023DBB21A464FF44E
:10053C000041B86801F063F800BF1837BD4680BDB4
:10054C00400000200008014080B582B000AF034697
:10055C003A60FB800B46BB803B68DAB2FB881946DD
:10056C00064801F04CF83B68DAB2BB8819460348E0
:10057C0001F045F800BF0837BD4680BD000C0140B6
:10058C0080B500AFBB4B1B88042B00F2B58101A2D8
:10059C0052F823F0B5050008F9050008B306000869
:1005AC006F07000821080008012240210820FFF7EE
:1005BC00CBFF012280211020FFF7C6FF01224FF450
:1005CC0080712020FFF7C0FFAA4B01221A80002166
:1005DC00642000F0ADFCA84B9B781A46642303FB07
:1005EC0002F30121184600F0A3FC85E1A34B5B68E4
:1005FC00002B28D0A24B1A78A24B1B789A420AD215
:10060C00A04B1B781A46642303FB02F30121184606
:10061C0000F08EFC32E0984B5A789A4B1A70954B3E
:10062C0002221A8001224FF480710820FFF78CFF00
:10063C00914B5B781A46642303FB02F301211846A5
:10064C0000F076FC1AE000224FF480710820FFF7CE
:10065C007BFF8B4B1B7800228B491846FFF714FE4F
:10066C00874B1B78012288491846FFF70DFE854BF6
:10067C001B78002285491846FFF706FE0020FFF77D
:10068C006FFD0346002B00F030817A4B0C221A8050
:10069C0001224FF480710820FFF756FF0021322011
:1006AC0000F046FC21E1754B5B68002B2BD0744BA2
:1006BC001A78744B1B789A420AD2724B1B781A46E2
:1006CC00642303FB02F30121184600F031FC34E0F3
:1006DC00694B9A786A4B1A70674B1A78694B1A7087
:1006EC00644B03221A80012280210820FFF72CFF83
:1006FC00614B9B781A46642303FB02F301211846D5
:10070C0000F016FC19E0002280210820FFF71CFFE6
:10071C005B4B1B7800225C491846FFF7B5FD584B24
:10072C001B78012258491846FFF7AEFD554B1B7834
:10073C00002256491846FFF7A7FD0020FFF710FDD1
:10074C000346002B00F0D3804A4B0C221A80012266
:10075C0080210820FFF7F8FE0021322000F0E8FB92
:10076C00C5E0464B5B68002B27D0464B1A78444BB0
:10077C001B789A420AD2424B1B781A46642303FB1D
:10078C0002F30121184600F0D3FB30E03A4B5A78C3
:10079C003B4B1A70374B04221A8001224021202037
:1007AC00FFF7D2FE344B5B781A46642303FB02F34B
:1007BC000121184600F0BCFB19E00022402120204A
:1007CC00FFF7C2FE2E4B1B7800222F491846FFF76D
:1007DC005BFD2B4B1B7801222B491846FFF754FD70
:1007EC00284B1B78002229491846FFF74DFD0020A5
:1007FC00FFF7B6FC0346002B7BD01E4B0C221A8055
:10080C00012240212020FFF79FFE0021322000F022
:10081C008FFB6EE0194B5B68002B39D0194B1A78A3
:10082C00174B1B789A420AD2154B1B781A46642335
:10083C0003FB02F30121184600F07AFB42E00E4B59
:10084C001A780F4B1A700C4B9A780E4B1A70094B86
:10085C0001221A80012240211020FFF775FE064B61
:10086C009B781A46642303FB02F30121184600F01F
:10087C005FFB27E080000020380000209000002063
:10088C003B0000203C00002000080140000C01400F
:10089C00002240211020FFF757FE264B1B78002228
:1008AC0025491846FFF7F0FC224B1B780122224900
:1008BC001846FFF7E9FC214B1B780022204918460B
:1008CC00FFF7E2FC0020FFF74BFC0346002B12D095
:1008DC001C4B0C221A80012240211020FFF734FE01
:1008EC000021322000F024FB05E000BF04E000BF33
:1008FC0002E000BF00E000BF134B1B68002B17D0B9
:10090C000C4B1B78002B05D00A4B1B78013BDAB241
:10091C00084B1A70094B1B78002B05D0074B1B7822
:10092C00013BDAB2054B1A700021642000F000FB89
:10093C0000BF80BD3B000020000801403C000020AF
:10094C00000C0140800000209000002080B500AF1A
:10095C008D4B1B880E2B00F09B800E2B00F3FE8022
:10096C000C2B02D00D2B4AD0F8E0884B1A88884B00
:10097C00A3FB0213D9080B469B000B445B00D31A54
:10098C009BB2002283491846FFF77EFC7F4B1B88E5
:10099C007F4AA2FB0323DB089BB201227D49184648
:1009AC00FFF772FC00227C490220FFF76DFC7B4BA9
:1009BC001B68002B07D04821774800F038FE002137
:1009CC00322000F0B5FA0020FFF7CAFB0346002BDB
:1009DC0008D06D4B0D221A80012240210820FFF710
:1009EC00B3FDBBE00220FFF7BBFB0346002B00F07E
:1009FC00B080664B1B88DAB2694B1A70A9E0634B66
:100A0C001A88634BA3FB0213D9080B469B000B44BB
:100A1C005B00D31A9BB200225E491846FFF734FCE8
:100A2C005A4B1B885A4AA2FB0323DB089BB20122B8
:100A3C0058491846FFF728FC002257490320FFF7B6
:100A4C0023FC564B1B68002B07D09021524800F01A
:100A5C00EEFD0021322000F06BFA0020FFF780FB46
:100A6C000346002B08D0484B0E221A80012280210D
:100A7C001020FFF769FD71E00220FFF771FB0346C0
:100A8C00002B68D0414B1B88DAB2454B5A7062E0A0
:100A9C003E4B1A883E4BA3FB0213D9080B469B0016
:100AAC000B445B00D31A9BB200223A491846FFF75D
:100ABC00EBFB364B1B88364AA2FB0323DB089BB2AD
:100ACC00012234491846FFF7DFFB0022324904208B
:100ADC00FFF7DAFB314B1B68002B08D04FF49071F9
:100AEC002D4800F0A4FD0021322000F021FA002056
:100AFC00FFF736FB0346002B1FD0234B01221A8035
:100B0C0001224FF480712020FFF71EFD244B1A7830
:100B1C00244B1A70224B9A78234B1A70204B9B78DB
:100B2C001A46642303FB02F30121184600F000FA75
:100B3C000021642000F0FCF910E00220FFF710FB0C
:100B4C000346002B09D0114B1B88DAB2144B9A7058
:100B5C0003E000BF02E000BF00E000BF0120FFF790
:100B6C00FFFA0346002B0CD0084B1B8801339AB2BA
:100B7C00064B1A80054B1B88642B02D1034B0122B8
:100B8C001A8000BF80BD00BF800000203400002010
:100B9C00CDCCCCCC00080140000C014090000020D2
:100BAC00380000203B0000203C00002080B500AF46
:100BBC0000F024FA00F024F800F0AAF800F05CF839
:100BCC000C4801F079F9012201210B4800F017FDC6
:100BDC000021642000F0ACF901214FF4967000F074
:100BEC00A7F9064B00221A80FFF7CAFCFFF7AEFEEE
:100BFC00FAE700BF9C000020000C014080000020A0
:100C0C0080B590B000AF07F11803282200211846D8
:100C1C0001F00EFD3B1D00221A605A609A60DA60EA
:100C2C001A610223BB610123BB621023FB62002308
:100C3C007B6307F11803184600F012FD0346002BE6
:100C4C0001D000F0E1F80F237B600023BB60002390
:100C5C00FB6000233B6100237B613B1D0021184698
:100C6C0000F07EFF0346002B01D000F0CDF800BF52
:100C7C004037BD4680BD000080B586B000AF07F19F
:100C8C00080300221A605A609A60DA603B46002220
:100C9C001A605A601D4B4FF080421A601B4B41F694
:100CAC003F725A60194B00229A60184B0922DA6085
:100CBC00164B00221A61154B00229A61134801F061
:100CCC00ABF80346002B01D000F09EF84FF4805394
:100CDC00BB6007F1080319460C4801F041FA0346C2
:100CEC00002B01D000F090F800233B6000237B60C8
:100CFC003B461946054801F00DFC0346002B01D07C
:100D0C0000F082F800BF1837BD4680BD9C00002063
:100D1C0080B586B000AF07F1080300221A605A6054
:100D2C009A60DA60284B9B69274A43F0040393616D
:100D3C00254B9B6903F004037B607B68224B9B690A
:100D4C00214A43F0080393611F4B9B6903F008038E
:100D5C003B603B6800224FF67F611C4800F04FFC63
:100D6C0000224FF6F8711A4800F049FC4FF67F63E9
:100D7C00BB600123FB6000233B6102237B6107F115
:100D8C0008031946114800F0A9FA0723BB60002399
:100D9C00FB6001233B6107F1080319460C4800F086
:100DAC009DFA4FF6F873BB600123FB6000233B6197
:100DBC0002237B6107F108031946054800F08EFAFF
:100DCC0000BF1837BD4680BD00100240000801402E
:100DDC00000C014080B582B000AF7860002000F0BC
:100DEC00BFF8012000F0BCF801210020FFF7D2F978
:100DFC0002210120FFF7CEF904210220FFF7CAF9E6
:100E0C0000BF0837BD4680BD80B400AF72B600BFCE
:100E1C00FEE7000080B485B000AF154B9B69144A07
:100E2C0043F001039361124B9B6903F00103BB6018
:100E3C00BB680F4BDB690E4A43F08053D3610C4BFC
:100E4C00DB6903F080537B607B680A4B5B68FB605B
:100E5C00FB6823F0E063FB60FB6843F08063FB609E
:100E6C00044AFB68536000BF1437BD4680BC704712
:100E7C00001002400000014080B584B000AF7860E3
:100E8C007B681B68B3F1804F13D10C4BDB690B4AA9
:100E9C0043F00103D361094BDB6903F00103FB60F1
:100EAC00FB68002200211C2000F0E1F91C2000F05E
:100EBC00FAF900BF1037BD4680BD00BF00100240DC
:100ECC0080B400AFFEE780B400AFFEE780B400AFA3
:100EDC00FEE780B400AFFEE780B400AFFEE780B45D
:100EEC0000AF00BFBD4680BC704780B400AF00BFF0
:100EFC00BD4680BC704780B400AF00BFBD4680BC0F
:100F0C00704780B500AF00F0BFF800BF80BD000097
:100F1C0080B500AF024801F01BF800BF80BD00BFD8
:100F2C009C00002080B400AF00BFBD4680BC704761
:100F3C0080B483B000AF7860396007493B687A6849
:100F4C0041F82320054A3B68002142F8231000BFDA
:100F5C000C37BD4680BC70478400002090000020F8
:100F6C0080B483B000AF78600F4A7B6852F82330AE
:100F7C00002B13DD0C4A7B6852F823305A1E0A49A9
:100F8C007B6841F82320084A7B6852F82330002BF9
:100F9C0004DC064A7B68012142F8231000BF0C37A1
:100FAC00BD4680BC704700BF84000020900000202C
:100FBC00FFF7B8FF0B480C490C4A002302E0D45849
:100FCC00C4500433C4188C42F9D3094A094C002389
:100FDC0001E013600432A242FBD301F005FBFFF7E2
:100FEC00E5FD704700000020580000209026000806
:100FFC0058000020E8000020FEE7000080B500AF9C
:10100C00084B1B68074A43F010031360032000F0E1
:10101C0023F90F2000F008F8FFF7FCFE0023184618
:10102C0080BD00BF0020024080B582B000AF786068
:10103C00124B1A68124B1B7819464FF47A73B3FB98
:10104C00F1F3B2FBF3F3184600F03BF90346002B27
:10105C0001D001230EE07B680F2B0AD8002279689F
:10106C004FF0FF3000F003F9064A7B681360002351
:10107C0000E0012318460837BD4680BD4C00002017
:10108C00540000205000002080B400AF054B1B78AA
:10109C001A46054B1B681344034A136000BFBD4638
:1010AC0080BC704754000020E400002080B400AFE6
:1010BC00024B1B681846BD4680BC7047E4000020FC
:1010CC0080B485B000AF78607B6803F00703FB60E9
:1010DC000C4BDB68BB60BA684FF6FF031340BB6078
:1010EC00FB681A02BB68134343F0BF6343F400333D
:1010FC00BB60044ABB68D36000BF1437BD4680BCDC
:10110C00704700BF00ED00E080B400AF044BDB681B
:10111C001B0A03F007031846BD4680BC704700BF8E
:10112C0000ED00E080B483B000AF0346FB7197F98B
:10113C000730002B0BDBFB7903F01F02064997F9F4
:10114C0007305B09012000FA02F241F8232000BFAE
:10115C000C37BD4680BC704700E100E080B483B022
:10116C0000AF03463960FB7197F90730002B0ADB9F
:10117C003B68DAB20C4997F907301201D2B20B4432
:10118C0083F800230AE03B68DAB20849FB7903F0E4
:10119C000F03043B1201D2B20B441A7600BF0C377A
:1011AC00BD4680BC704700BF00E100E000ED00E0F0
:1011BC0080B489B000AFF860B9607A60FB6803F066
:1011CC000703FB61FB69C3F10703042B28BF04234E
:1011DC00BB61FB690433062B02D9FB69033B00E0BE
:1011EC0000237B614FF0FF32BB6902FA03F3DA4351
:1011FC00BB681A407B699A404FF0FF317B6901FA5A
:10120C0003F3D9437B680B40134318462437BD4680
:10121C0080BC704780B582B000AF78607B68013BC2
:10122C00B3F1807F01D301230FE00A4A7B68013BB5
:10123C0053600F214FF0FF30FFF790FF054B00225A
:10124C009A60044B07221A60002318460837BD46E3
:10125C0080BD00BF10E000E080B582B000AF7860C8
:10126C007868FFF72DFF00BF0837BD4680BD80B5FD
:10127C0086B000AF0346B9607A60FB7300237B61D4
:10128C00FFF742FF78617A68B9687869FFF790FFD9
:10129C00024697F90F3011461846FFF75FFF00BF63
:1012AC001837BD4680BD80B582B000AF0346FB71D8
:1012BC0097F907301846FFF735FF00BF0837BD46D2
:1012CC0080BD80B582B000AF78607868FFF7A2FF70
:1012DC00034618460837BD4680BD000080B48BB06D
:1012EC0000AF7860396000237B6200233B6248E1E9
:1012FC0001227B6A02FA03F3FB613B681B68FA6903
:10130C001340BB61BA69FB699A4240F037813B6874
:10131C005B68A34A93425ED0A14A934275D8A14A16
:10132C00934258D09F4A93426FD89F4A934252D0CF
:10133C009D4A934269D89D4A93424CD09B4A934212
:10134C0063D89B4A934246D0994A93425DD8122B5C
:10135C002AD8122B59D801A252F823F0E313000813
:10136C00BD130008CF13000811140008171400084F
:10137C001714000817140008171400081714000895
:10138C001714000817140008171400081714000885
:10139C001714000817140008171400081714000875
:1013AC00C5130008D9130008824A934213D02CE0CD
:1013BC003B68DB683B6229E03B68DB6804333B62DB
:1013CC0024E03B68DB6808333B621FE03B68DB686A
:1013DC000C333B621AE03B689B68002B02D1042360
:1013EC003B6213E03B689B68012B05D108233B62F1
:1013FC007B68FA691A6109E008233B627B68FA6929
:10140C005A6103E000233B6200E000BFBB69FF2B85
:10141C0001D87B6801E07B6804337B61BB69FF2BDF
:10142C0002D87B6A9B0002E07B6A083B9B003B6115
:10143C007B691A680F213B6901FA03F3DB431A40FD
:10144C00396A3B6901FA03F31A437B691A603B68FA
:10145C005B6803F08053002B00F09080564B9B6927
:10146C00554A43F001039361534B9B6903F001030D
:10147C00BB60BB68514A7B6A9B08023352F823302D
:10148C00FB607B6A03F003039B000F2202FA03F359
:10149C00DB43FA681340FB607B68494A93420DD0EA
:1014AC007B68484A934207D07B68474A934201D1F4
:1014BC00022304E0032302E0012300E000237A6A04
:1014CC0002F0030292009340FA681343FB603B491D
:1014DC007B6A9B080233FA6841F823203B685B68FF
:1014EC0003F48013002B06D0384B9A683749BB693C
:1014FC0013438B6006E0354B9A68BB69DB43334979
:10150C0013408B603B685B6803F40013002B06D020
:10151C002E4BDA682D49BB691343CB6006E02B4B8D
:10152C00DA68BB69DB4329491340CB603B685B68D5
:10153C0003F40033002B06D0244B5A682349BB69B3
:10154C0013434B6006E0214B5A68BB69DB431F49D0
:10155C0013404B603B685B6803F48033002B06D070
:10156C001A4B1A681949BB6913430B6006E0174BF9
:10157C001A68BB69DB43154913400B607B6A013366
:10158C007B623B681A687B6A22FA03F3002B7FF4B8
:10159C00AFAE00BF00BF2C37BD4680BC704700BF4C
:1015AC000000321000003110000022100000211049
:1015BC000000121000001110001002400000014049
:1015CC0000080140000C01400010014000040140E3
:1015DC0080B485B000AF78600B467B807B689A68DE
:1015EC007B881340002B02D00123FB7301E0002306
:1015FC00FB73FB7B18461437BD4680BC704780B428
:10160C0083B000AF78600B467B8013467B707B7891
:10161C00002B03D07A887B681A6103E07B881A045C
:10162C007B681A6100BF0C37BD4680BC704780B424
:10163C0085B000AF78600B467B807B68DB68FB6015
:10164C007A88FB6813401A04FB68D9437B880B40EB
:10165C001A437B681A6100BF1437BD4680BC7047C3
:10166C0080B586B000AF78607B68002B01D1012378
:10167C006CE27B681B6803F00103002B00F0878091
:10168C00924B5B6803F00C03042B0CD08F4B5B6804
:10169C0003F00C03082B12D18C4B5B6803F48033E2
:1016AC00B3F5803F0BD1894B1B6803F40033002B3F
:1016BC006CD07B685B68002B68D1012346E27B68A9
:1016CC005B68B3F5803F06D1804B1B687F4A43F4BF
:1016DC00803313602EE07B685B68002B0CD17B4B56
:1016EC001B687A4A23F480331360784B1B68774A63
:1016FC0023F4802313601DE07B685B68B3F5A02F97
:10170C000CD1724B1B68714A43F4802313606F4BEE
:10171C001B686E4A43F4803313600BE06B4B1B6801
:10172C006A4A23F480331360684B1B68674A23F4BE
:10173C00802313607B685B68002B13D0FFF7B6FC2B
:10174C00386108E0FFF7B2FC02463B69D31A642B00
:10175C0001D90323FAE15D4B1B6803F40033002B22
:10176C00F0D014E0FFF7A2FC386108E0FFF79EFC14
:10177C0002463B69D31A642B01D90323E6E1534B90
:10178C001B6803F40033002BF0D100E000BF7B6832
:10179C001B6803F00203002B63D04C4B5B6803F017
:1017AC000C03002B0BD0494B5B6803F00C03082B8C
:1017BC001CD1464B5B6803F48033002B16D1434B92
:1017CC001B6803F00203002B05D07B681B69012BFF
:1017DC0001D00123BAE13D4B1B6823F0F8027B6872
:1017EC005B69DB00394913430B603AE07B681B698A
:1017FC00002B20D0364B01221A60FFF757FC3861C2
:10180C0008E0FFF753FC02463B69D31A022B01D9BF
:10181C0003239BE12D4B1B6803F00203002BF0D03C
:10182C002A4B1B6823F0F8027B685B69DB002749B5
:10183C0013430B6015E0264B00221A60FFF736FCB1
:10184C00386108E0FFF732FC02463B69D31A022BE1
:10185C0001D903237AE11D4B1B6803F00203002B13
:10186C00F0D17B681B6803F00803002B3AD07B682F
:10187C009B69002B19D0174B01221A60FFF716FC3D
:10188C00386108E0FFF712FC02463B69D31A022BC1
:10189C0001D903235AE10D4B5B6A03F00203002BC1
:1018AC00F0D0012000F09AFA1CE00A4B00221A60DA
:1018BC00FFF7FCFB38610FE0FFF7F8FB02463B69D2
:1018CC00D31A022B08D9032340E100BF00100240B9
:1018DC0000004242800442429E4B5B6A03F00203CA
:1018EC00002BE9D17B681B6803F00403002B00F08C
:1018FC00A6800023FB75974BDB6903F08053002B0C
:10190C000DD1944BDB69934A43F08053D361914BD7
:10191C00DB6903F08053BB60BB680123FB758E4B06
:10192C001B6803F48073002B18D18B4B1B688A4AFD
:10193C0043F480731360FFF7B9FB386108E0FFF7DD
:10194C00B5FB02463B69D31A642B01D90323FDE096
:10195C00814B1B6803F48073002BF0D07B68DB6831
:10196C00012B06D17B4B1B6A7A4A43F001031362AD
:10197C002DE07B68DB68002B0CD1764B1B6A754A1B
:10198C0023F001031362734B1B6A724A23F00403A6
:10199C0013621CE07B68DB68052B0CD16D4B1B6A5A
:1019AC006C4A43F0040313626A4B1B6A694A43F0A6
:1019BC00010313620BE0674B1B6A664A23F00103B9
:1019CC001362644B1B6A634A23F0040313627B6843
:1019DC00DB68002B15D0FFF769FB38610AE0FFF7D5
:1019EC0065FB02463B69D31A41F28832934201D916
:1019FC000323ABE0574B1B6A03F00203002BEED022
:101A0C0014E0FFF753FB38610AE0FFF74FFB024687
:101A1C003B69D31A41F28832934201D9032395E0F2
:101A2C004C4B1B6A03F00203002BEED1FB7D012B08
:101A3C0005D1484BDB69474A23F08053D3617B685F
:101A4C00DB69002B00F08180424B5B6803F00C03D8
:101A5C00082B61D07B68DB69022B46D13F4B0022FF
:101A6C001A60FFF723FB386108E0FFF71FFB024603
:101A7C003B69D31A022B01D9032367E0354B1B6852
:101A8C0003F00073002BF0D17B681B6AB3F5803F29
:101A9C0008D1304B5B6823F400327B689B682D497E
:101AAC0013434B602B4B5B6823F474127B68196AED
:101ABC007B685B6A0B43274913434B60274B01221E
:101ACC001A60FFF7F3FA386108E0FFF7EFFA024605
:101ADC003B69D31A022B01D9032337E01D4B1B683A
:101AEC0003F00073002BF0D02FE01C4B00221A6087
:101AFC00FFF7DCFA386108E0FFF7D8FA02463B69D9
:101B0C00D31A022B01D9032320E0124B1B6803F0DC
:101B1C000073002BF0D118E07B68DB69012B01D13D
:101B2C00012313E00B4B5B68FB60FB6803F4803212
:101B3C007B681B6A9A4206D1FB6803F470127B68BF
:101B4C005B6A9A4201D0012300E000231846183743
:101B5C00BD4680BD00100240007000406000424253
:101B6C0080B584B000AF786039607B68002B01D100
:101B7C000123D0E06A4B1B6803F007033A689A42D2
:101B8C0010D9674B1B6823F0070265493B68134368
:101B9C000B60634B1B6803F007033A689A4201D051
:101BAC000123B8E07B681B6803F00203002B20D0F4
:101BBC007B681B6803F00403002B05D0594B5B6852
:101BCC00584A43F4E06353607B681B6803F00803D6
:101BDC00002B05D0534B5B68524A43F4605353605F
:101BEC00504B5B6823F0F0027B689B684D491343B4
:101BFC004B607B681B6803F00103002B40D07B68B3
:101C0C005B68012B07D1474B1B6803F40033002B97
:101C1C0015D101237FE07B685B68022B07D1414B18
:101C2C001B6803F00073002B09D1012373E03D4BBB
:101C3C001B6803F00203002B01D101236BE0394B2D
:101C4C005B6823F003027B685B68364913434B6087
:101C5C00FFF72CFAF8600AE0FFF728FA0246FB6857
:101C6C00D31A41F28832934201D9032353E02D4B0E
:101C7C005B6803F00C027B685B689B009A42EBD1BB
:101C8C00274B1B6803F007033A689A4210D2244B87
:101C9C001B6823F0070222493B6813430B60204B5F
:101CAC001B6803F007033A689A4201D0012332E023
:101CBC007B681B6803F00403002B08D0194B5B688E
:101CCC0023F4E0627B68DB68164913434B607B6846
:101CDC001B6803F00803002B09D0124B5B6823F43C
:101CEC0060527B681B69DB000E4913434B6000F0AC
:101CFC0021F802460B4B5B681B0903F00F030A49E2
:101D0C00CB5C22FA03F3094A1360094B1B68184693
:101D1C00FFF78AF9002318461037BD4680BD00BF77
:101D2C000020024000100240642600084C000020F5
:101D3C005000002080B487B000AF0023FB6000236C
:101D4C00BB6000237B6100237B6000233B611E4B47
:101D5C005B68FB60FB6803F00C03042B02D0082BC0
:101D6C0003D027E0194B3B6127E0FB689B0C03F089
:101D7C000F03174AD35C7B60FB6803F48033002BA2
:101D8C0010D0114B5B685B0C03F00103114AD35C60
:101D9C00BB607B680D4A02FB03F2BB68B2FBF3F33A
:101DAC007B6104E07B680C4A02FB03F37B617B697B
:101DBC003B6102E0054B3B6100BF3B6918461C3799
:101DCC00BD4680BC704700BF0010024000127A0074
:101DDC00742600088426000800093D0080B485B0F4
:101DEC0000AF78600A4B1B680A4AA2FB03235B0A0C
:101DFC007A6802FB03F3FB6000BFFB685A1EFA60B3
:101E0C00002BF9D100BF00BF1437BD4680BC704712
:101E1C004C000020D34D621080B582B000AF7860CA
:101E2C007B68002B01D1012341E07B6893F83D30A6
:101E3C00DBB2002B06D17B68002283F83C2078684B
:101E4C00FFF71AF87B68022283F83D207B681A683A
:101E5C007B6804331946104600F06EFA7B68012249
:101E6C0083F846207B68012283F83E207B680122A0
:101E7C0083F83F207B68012283F840207B68012295
:101E8C0083F841207B68012283F842207B68012281
:101E9C0083F843207B68012283F844207B6801226D
:101EAC0083F845207B68012283F83D2000231846E7
:101EBC000837BD4680BD000080B485B000AF7860A7
:101ECC007B6893F83D30DBB2012B01D0012335E068
:101EDC007B68022283F83D207B681B68DA687B688C
:101EEC001B6842F00102DA607B681B68164A934259
:101EFC0009D07B681B68B3F1804F04D07B681B68EA
:101F0C00124A934211D17B681B689B6803F007034C
:101F1C00FB60FB68062B10D07B681B681A687B681B
:101F2C001B6842F001021A6007E07B681B681A68A4
:101F3C007B681B6842F001021A60002318461437B4
:101F4C00BD4680BC704700BF002C0140000400401F
:101F5C0080B582B000AF78607B681B681B6903F0AA
:101F6C000203022B22D17B681B68DB6803F002039F
:101F7C00022B1BD17B681B686FF002021A617B6815
:101F8C0001221A777B681B689B6903F00303002B03
:101F9C0003D0786800F0B4F905E0786800F0A7F990
:101FAC00786800F0B6F97B6800221A777B681B68AA
:101FBC001B6903F00403042B22D17B681B68DB68CC
:101FCC0003F00403042B1BD17B681B686FF0040225
:101FDC001A617B6802221A777B681B689B6903F481
:101FEC004073002B03D0786800F08AF905E078681C
:101FFC0000F07DF9786800F08CF97B6800221A7784
:10200C007B681B681B6903F00803082B22D17B68D3
:10201C001B68DB6803F00803082B1BD17B681B686B
:10202C006FF008021A617B6804221A777B681B68C0
:10203C00DB6903F00303002B03D0786800F060F930
:10204C0005E0786800F053F9786800F062F97B6875
:10205C0000221A777B681B681B6903F01003102B96
:10206C0022D17B681B68DB6803F01003102B1BD19B
:10207C007B681B686FF010021A617B6808221A7764
:10208C007B681B68DB6903F44073002B03D0786812
:10209C0000F036F905E0786800F029F9786800F06E
:1020AC0038F97B6800221A777B681B681B6903F080
:1020BC000103012B0ED17B681B68DB6803F0010365
:1020CC00012B07D17B681B686FF001021A617868DD
:1020DC00FEF780FE7B681B681B6903F08003802B76
:1020EC000ED17B681B68DB6803F08003802B07D163
:1020FC007B681B686FF080021A61786800F06BFADD
:10210C007B681B681B6903F04003402B0ED17B6876
:10211C001B68DB6803F04003402B07D17B681B680E
:10212C006FF040021A61786800F0FCF87B681B685D
:10213C001B6903F02003202B0ED17B681B68DB6826
:10214C0003F02003202B07D17B681B686FF0200263
:10215C001A61786800F036FA00BF0837BD4680BDBA
:10216C0080B584B000AF786039600023FB737B6866
:10217C0093F83C30012B01D10223B4E07B6801229F
:10218C0083F83C207B68022283F83D207B681B6827
:10219C009B68BB60BB6823F07703BB60BB6823F410
:1021AC007F43BB607B681B68BA689A603B681B689E
:1021BC00B3F5005F3ED0B3F5005F00F28780B3F556
:1021CC00805F00F08680B3F5805F7FD8702B1AD0CB
:1021DC00702B7BD8602B50D0602B77D8502B3CD0F9
:1021EC00502B73D8402B58D0402B6FD8302B64D049
:1021FC00302B6BD8202B60D0202B67D8002B5CD0D9
:10220C00102B5AD062E07B6818683B6899683B6871
:10221C005A683B68DB6800F05EF97B681B689B685A
:10222C00BB60BB6843F07703BB607B681B68BA6814
:10223C009A604FE07B6818683B6899683B685A68FD
:10224C003B68DB6800F047F97B681B689A687B6821
:10225C001B6842F480429A603CE07B6818683B68DB
:10226C0059683B68DB681A4600F0BEF87B681B684F
:10227C005021184600F015F92CE07B6818683B6873
:10228C0059683B68DB681A4600F0DCF87B681B6811
:10229C006021184600F005F91CE07B6818683B6863
:1022AC0059683B68DB681A4600F09EF87B681B682F
:1022BC004021184600F0F5F80CE07B681A683B6882
:1022CC001B681946104600F0ECF803E00123FB7381
:1022DC0000E000BF7B68012283F83D207B68002270
:1022EC0083F83C20FB7B18461037BD4680BD80B47C
:1022FC0083B000AF786000BF0C37BD4680BC704720
:10230C0080B483B000AF786000BF0C37BD4680BC92
:10231C00704780B483B000AF786000BF0C37BD4607
:10232C0080BC704780B483B000AF786000BF0C37BE
:10233C00BD4680BC7047000080B485B000AF7860AB
:10234C0039607B681B68FB607B68254A934207D029
:10235C007B68B3F1804F03D07B68224A934208D14B
:10236C00FB6823F07003FB603B685B68FA681343FF
:10237C00FB607B681A4A934207D07B68B3F1804FAD
:10238C0003D07B68174A934208D1FB6823F440734F
:10239C00FB603B68DB68FA681343FB60FB6823F067
:1023AC0080023B685B691343FB607B68FA681A60C8
:1023BC003B689A687B68DA623B681A687B689A6249
:1023CC007B68074A934203D13B681A697B681A639E
:1023DC007B6801225A6100BF1437BD4680BC704730
:1023EC00002C01400004004080B487B000AFF860BE
:1023FC00B9607A60FB681B6A7B61FB681B6A23F01F
:10240C000102FB681A62FB689B693B613B6923F024
:10241C00F0033B617B681B013A6913433B617B69A9
:10242C0023F00A037B617A69BB6813437B61FB6809
:10243C003A699A61FB687A691A6200BF1C37BD461B
:10244C0080BC704780B487B000AFF860B9607A6028
:10245C00FB681B6A7B61FB681B6A23F01002FB683C
:10246C001A62FB689B693B613B6923F470433B61D7
:10247C007B681B033A6913433B617B6923F0A00320
:10248C007B61BB681B017A6913437B61FB683A690A
:10249C009A61FB687A691A6200BF1C37BD4680BC22
:1024AC00704780B485B000AF786039607B689B68FA
:1024BC00FB60FB6823F07003FB603A68FB68134316
:1024CC0043F00703FB607B68FA689A6000BF14371F
:1024DC00BD4680BC704780B487B000AFF860B9606F
:1024EC007A603B60FB689B687B617B6923F47F436C
:1024FC007B613B681A027B681A43BB6813437A6999
:10250C0013437B61FB687A699A6000BF1C37BD4638
:10251C0080BC704780B485B000AF786039607B6850
:10252C0093F83C30012B01D1022341E07B6801225E
:10253C0083F83C207B68022283F83D207B681B6873
:10254C005B68FB607B681B689B68BB60FB6823F067
:10255C007003FB603B681B68FA681343FB607B6885
:10256C001B68FA685A607B681B68144A934209D04E
:10257C007B681B68B3F1804F04D07B681B68104AE2
:10258C0093420CD1BB6823F08003BB603B685B6853
:10259C00BA681343BB607B681B68BA689A607B6837
:1025AC00012283F83D207B68002283F83C20002325
:1025BC0018461437BD4680BC704700BF002C014044
:1025CC000004004080B483B000AF786000BF0C37CB
:1025DC00BD4680BC704780B483B000AF786000BF4C
:1025EC000C37BD4680BC704770B500260C4D0D4CA9
:1025FC00641BA410A64209D100F022F800260A4D53
:10260C000A4C641BA410A64205D170BD55F8043BBE
:10261C0098470136EEE755F8043B98470136F2E748
:10262C008826000888260008882600088C260008C2
:10263C0003460244934200D1704703F8011BF9E7AB
:10264C00F8B500BFF8BC08BC9E467047F8B500BF93
:08265C00F8BC08BC9E46704763
:10266400000000000000000001020304060708093E
:1026740002030405060708090A0B0C0D0E0F1010BF
:04268400010200004F
:042688003101000814
:04268C000D01000834
:102690000100000001000000010000000100000036
:1026A0000100000001000000010000000100000026
:1026B0000100000001000000010000000100000016
:1026C000C80000000100000005020305030000002F
:1026D0003F065B4F666D7D077F6F00000024F400AE
:0826E0001000000001000000E1
:0400000508000FBD23
:00000001FF
